:020000040800F2
:100000003834002015020008E1180008ED1000083F
:100010006B160008750400089B250008000000000E
:10002000000000000000000000000000991A000815
:10003000F5080008000000005D190008E51B000835
:100040002F0200082F0200082F0200082F020008CC
:100050002F0200082F0200082F0200082F020008BC
:100060002F0200082F0200082F0200082F020008AC
:100070002F0200082F0200082F0200082F0200089C
:100080002F0200082F0200082F0200082F0200088C
:100090002F0200082F0200082F0200082F0200087C
:1000A0002F020008551C00082F0200082F0200082C
:1000B0002F020008351D00082F0200082F0200083B
:1000C0002F0200082F0200082F0200082F0200084C
:1000D0002F02000895210008FD2100082F020008CA
:1000E0002F0200082F0200082F0200082F0200082C
:1000F0002F0200082F0200082F0200082F0200081C
:100100002F0200082F0200082F0200082F0200080B
:100110002F0200082F0200082F0200082F020008FB
:100120002F0200082F0200082F0200082F020008EB
:1001300000F002F800F05EF80AA090E8000C82449B
:100140008344AAF10107DA4501D100F053F8AFF278
:10015000090EBAE80F0013F0010F18BFFB1A43F0A5
:1001600001031847CC3F0000EC3F000010F8013BB2
:100170000A4413F0030408BF10F8014B1D1108BF17
:1001800010F8015B641E05D010F8016B641E01F8C5
:10019000016BF9D1002D15D010F8014B03F00C03C1
:1001A0000C2BA1EB04040ABF10F8013BA4EB831451
:1001B000A4EB032405F1010314F8016B5B1E01F8A5
:1001C000016BF9D5914238BF10F8013BD1D370478C
:1001D0000023002400250026103A28BF78C1FBD850
:1001E000520728BF30C148BF0B6070471FB51FBD05
:1001F00010B510BD00F094F81146FFF7F7FF02F0BC
:10020000D7FC00F0C6F803B4FFF7F2FF03BC02F01E
:100210003FFA00000948804709480047FEE7FEE72B
:10022000FEE7FEE7FEE7FEE7FEE7FEE7FEE7FEE7A6
:1002300004480549054A064B70470000051C0008A4
:1002400031010008382E00203834002038300020DA
:1002500038300020704700000FB4044910B503AADD
:10026000029800F027F810BC5DF814FB080000208D
:1002700030B505460B462A4613F8014B12F8010B20
:1002800008B1A042F8D01CB1002802D06D1CF1E7E3
:10029000284630BD704770477047704710B500F072
:1002A0001BF8006810BD10B5044600F015F8046096
:1002B00010BD0000074B70B50D467B4400F015F8EB
:1002C0000446284600F024F810B14FF0FF3070BD0E
:1002D000204670BD8B28000000487047D82D0020B4
:1002E00001694A1C02610878704700B58FB0CDE9FA
:1002F00001310021059105497944CDE903101146EA
:10030000684600F032F80FB000BD0000E5FFFFFFC7
:10031000007B00F08000704700487047D82D002017
:100320007546FFF7F9FFAE4605006946534620F0D3
:100330000700854618B020B5FFF77AFFBDE82040DA
:100340004FF000064FF000074FF000084FF0000B91
:1003500021F00701AC46ACE8C009ACE8C009ACE844
:10036000C009ACE8C0098D4670472DE9F04106464A
:100370000024D6E90170F5688046304603E0414626
:10038000B847641C3046A8470028F8D12046BDE88D
:10039000F08110B50446AFF300802046BDE8104060
:1003A000FFF731BF0A460146014802F0D5B8000008
:1003B000003801402DE9FC5F8446DDE90CBA88462F
:1003C0009146009300260024284DAA21012029707F
:1003D0006970A870264F6046394603F065FC03F04B
:1003E000C7FB01909DF8050028719DF80400687115
:1003F0003946404603F058FC03F0BAFB01909DF8E3
:100400000500A8719DF80400E8713946484603F0DC
:100410004BFC03F0ADFB01909DF8050028729DF8A0
:10042000040068729DF80300A8729DF80200E8724B
:100430009DF8010028739DF80000687385F80EB0E0
:10044000102085F80FA00C21E9702A4604E0115D08
:100450003144CEB2641CE4B28442F8D3411CC9B228
:100460001654BDE8FC5F0148FFF79CBF002D00203B
:100470000000C842FEE700007FB5194E7078401CAE
:100480007070B078401CB070164DD5E9020102F0D2
:1004900035FC002402460094019402940394D5E9AB
:1004A0000010234600F090F9D5E9020102F026FC85
:1004B000024600940194D5E900100023FFF77AFF6B
:1004C0007078022807D33078012800D134700020DA
:1004D00001F03EFB7470B078642800D3B4707FBD27
:1004E0008C040020B00D002010B501F07DFB4FF40E
:1004F000E13002F0B3FB18A0FFF7AEFE00F02CFED7
:10050000472144F61F6001F0ABFB472140F2F31096
:1005100001F062FC00F0ECFD4FF4A06001F014FA71
:100520004FF4165001F0ACFE4FF47A7002F048FA26
:1005300000F096FF4FF4FA74204602F041FA00F002
:1005400073FA204602F03CFABDE81040472141F220
:10055000873001F00DBC000048656C6C6F20576F50
:10056000726C6421000000002DE9F0478CB001217D
:10057000084601F0F5F9DFF8DC80404600F080F82D
:10058000354E019635480290002403947515049564
:100590000594802706970794089409944FF4005A0D
:1005A000CDF828A00B9401A9404600F0EFF8DFF841
:1005B000A49009F11409484600F062F80196284811
:1005C00002901026039604950594069707940894C4
:1005D0000994CDF828A00B9401A9484600F0D6F85C
:1005E0008DF8006001258DF801508DF802408DF8DE
:1005F0000350684601F076F911208DF800008DF85F
:1006000001508DF802508DF80350684601F06AF9E8
:1006100001220221404600F0AFF8012202214846A3
:1006200000F0AAF80121404600F01CF800214846DD
:1006300000F018F8084C0122241F8021204601F008
:100640008BFE01224021204601F086FE0CB0BDE861
:10065000F08700006C000240044400406009002064
:1006600060050020002904D0016841F0010101600B
:10067000704701684FF6FE7211400160704700003C
:1006800001684FF6FE721140016000210160416077
:100690008160C1603649364A0839904204D14868C1
:1006A00040F00F0048607047314A1432904204D144
:1006B000486840F0F000486070472D4A2832904268
:1006C00004D1486840F4706048607047284A3C3262
:1006D000904204D1486840F4704048607047244A12
:1006E0005032904204D1486840F47020486070470E
:1006F0001F4A6432904204D1486840F47000486058
:1007000070471B4A7832904204D1486840F07060CC
:1007100048607047174A111F904204D1086840F0A2
:100720000F0008607047134A1432904204D10868E1
:1007300040F0F000086070470E4A2832904204D121
:10074000086840F47060086070470A4A3C32904282
:1007500004D1086840F4704008607047054A503280
:100760009042FAD1086840F4702008607047000099
:100770000800024008040240002A03D002680A432D
:100780000260704702688A430260704730B50268B1
:1007900047F6F0739A430C6A8B682343D1E904450A
:1007A0002C4323438C692343CC6923434C6A234362
:1007B0008C6A234313430360CA6842600A688260FC
:1007C0004968C16030BD00002DE9F807DDE90AC8BD
:1007D000DDE908670025464C4FF0AA0904F8039CA0
:1007E00004F8029C4FF0F10904F8019C00909DF878
:1007F000030060709DF80200A0709DF80100E07099
:100800009DF80000207100919DF8030060719DF833
:100810000200A0719DF80100E0719DF800002072B7
:1008200000929DF8030060729DF80200A0729DF88E
:100830000100E0729DF80000207300939DF8030012
:1008400060739DF80200A0739DF80100E0739DF8AD
:100850000000207400969DF8030060749DF802006B
:10086000A0749DF80100E0749DF8000020750097C9
:100870009DF8030060759DF80200A0759DF80100C9
:10088000E0759DF800002076CDF800C09DF80300CB
:1008900060769DF80200A0769DF80100E0769DF854
:1008A00000002077CDF800809DF8030060779DF868
:1008B0000200A0779DF80100E0779DF80000242257
:1008C00084F82000202020700020E31E04E0195C42
:1008D0002944CDB2401CC0B29042F8D3501CC1B2E2
:1008E0009D54BDE8F8070248C01EFFF75BBD00003D
:1008F000032D002070472DE9F0410022CC7804F050
:100900000F03E40601D58C7823430C784FF00F07D2
:1009100014F0FF0F4FF0010C1CD005680CFA02F424
:100920000E882640A64211D1960007FA06F825EA5D
:10093000080503FA06F848EA0505CE78282E02D005
:10094000482E02D002E0446100E00461521C082AF3
:10095000E4D305600A88FF2A1ED94568002202F107
:1009600008060CFA06F40E882640A64210D196001E
:1009700007FA06F825EA080503FA06F848EA050525
:10098000CE78282E00D14461CE78482E00D1046163
:10099000521C082AE3D34560BDE8F081F0B5154C40
:1009A000002801DAE36900E06368C0F30346420D02
:1009B000120185B2C0F301579540032F07D0C20240
:1009C0000CD50322B240934343F0706209E023F058
:1009D0007062636823F07063636002E0AB4343F0CE
:1009E000706201B12A43002801DAE261F0BD626061
:1009F000F0BD0000000001400246002092680A425B
:100A000000D00120704702460020D2680A4200D080
:100A10000120704701617047002A01D001617047D1
:100A20004161704700F038BE2DE9FE430026029672
:100A300001960096B14600240025294FFE603E61D4
:100A40007E61A0466A4601A902A800F0D1FBBDF96B
:100A500008008144BDF904000444BDF900000544C8
:100A600008F101081FFA88F8B8F1640FEAD948467E
:100A700003F0BAF802F01AFFDFF86880002243465C
:100A800002F02AFA02F03AF9F860204603F0ACF8D6
:100A900002F00CFF0022434602F01EFA02F02EF98B
:100AA0003861284603F0A0F802F000FF0022434618
:100AB00002F012FA02F022F9786109480C38068037
:100AC00046808680C6800681468124300660466066
:100AD0008660C6600661466102F042F8BDE8FE83AA
:100AE0007C0D0020000059402DE9F0474FF07E5763
:100AF000424A911EA1F10804A01D00F079FB221DBD
:100B0000A11C204600F052FB04F1240500202968B6
:100B100003F0CAF80646B4F9000003F065F8394658
:100B200003F0C2F86FF00B08414603F09AFA314621
:100B300002F0E8FE28600020696803F0B5F8064678
:100B4000B4F9020003F050F8394603F0ADF841461D
:100B500003F087FA314602F0D5FE68600020A968EC
:100B600003F0A2F80646B4F9040003F03DF8394654
:100B700003F09AF8414603F074FA314602F0C2FEDF
:100B8000A860B4F9060003F02FF804F10C06F16830
:100B900003F092F91A4F394603F086F8DFF86480C3
:100BA000414602F023FFDFF86090494602F01EFF45
:100BB000E860B4F9080003F017F8316903F07CF934
:100BC000394603F071F8414602F010FF494602F041
:100BD0000DFF2861B4F90A0003F006F8716903F00B
:100BE0006BF9394603F060F8414602F0FFFE4946D2
:100BF00002F0FCFE6861BDE8F08700007A0D00207D
:100C0000DA0F494000003443333383412DE9F04F7C
:100C100093B0FE480E90FE4801680C9146688168CA
:100C20000B91C0680A900C99084603F03DF80990B2
:100C300031460C9803F038F80890DDE90B1003F00A
:100C400033F807903146304603F02EF806903046D0
:100C50000A9903F029F805900B99084603F024F847
:100C60000490DDE90A1003F01FF803900A99084682
:100C700003F01AF80290DFF89C93D9E9005739463F
:100C8000284603F011F8D9F80840214603F00CF883
:100C900010F0FF4F7ED02146204603F005F80446B1
:100CA0003946384603F000F807462946284602F040
:100CB000FBFF394602F026FE214602F023FE01F03A
:100CC00085FF04462146D9F8000002F0EDFF80467A
:100CD000C9F800002146D9F8040002F0E5FF824679
:100CE000C9F804002146D9F8080002F0DDFF834668
:100CF000C9F808000799059803F0DEF8012103F010
:100D0000B0F904460399089802F0FCFD012103F0B4
:100D1000A8F907460699099803F0CEF8049903F05C
:100D2000CBF8029902F0EEFD05463946584602F02E
:100D3000BBFF01902946504602F0B6FF019903F02F
:100D4000BBF80D902946404602F0AEFF054621460D
:100D5000584602F0A9FF294603F0AEF805462146A1
:100D6000504602F0A1FF04463946404602F09CFF7F
:100D7000214603F0A1F80746DDE90D1002F094FFCB
:100D8000A34C443C616902F0BDFD80466061294688
:100D90000E9800E0A0E102F087FFA16902F0B2FD29
:100DA0008346A06139460E9802F07EFFE16902F0A9
:100DB000A9FD8246E061A0684146129002F074FFEE
:100DC000804660680D99119002F06EFFD9F80C1002
:100DD00002F098FD414602F095FD80460446C9F8B0
:100DE0000C005946129802F05FFF8346294611987D
:100DF00002F05AFFD9F8101002F084FD594602F0B3
:100E000081FD0546C9F810005146129802F04CFFCA
:100E100082463946119802F047FFD9F8141002F0C3
:100E200071FD514602F06EFD0746C9F814003946BF
:100E30000A9802F039FF814629460B9802F034FFE8
:100E4000824686F00040214602F02EFF514603F014
:100E500033F8494603F030F80E9902F025FF0C995B
:100E600002F050FD814629460A9802F01DFF824695
:100E700039460B9802F018FF83462146484602F097
:100E800013FF594602F03EFD514603F015F80E9946
:100E900002F00AFF314602F035FD82465D4C4146C4
:100EA0001C340A9802F000FF06463946504602F00C
:100EB000FBFE83462946484602F0F6FE594602F0FC
:100EC000FBFF314602F01EFD0E9902F0EDFE0B997C
:100ED00002F018FD06464146304602F0E5FE804627
:100EE0002946504602F0E0FE05463946484602F0E3
:100EF000DBFE294602F006FD414602F0DDFF0E99B9
:100F000002F0D2FE0A9902F0FDFC8346594658468B
:100F100002F0CAFE05463146304602F0C5FE0746DD
:100F20005146504602F0C0FE80464946484602F00F
:100F3000BBFE414602F0E6FC394602F0E3FC2946DE
:100F400002F0E0FC01F042FE05462946484602F068
:100F5000ABFEDFF8BC808146C8F800002946504649
:100F600002F0A2FE0746C8F804002946304602F007
:100F70009BFE8246C8F808002946584602F094FEB7
:100F80000646C8F80C0055460121384603F069F8BA
:100F90003146109002F088FE80460121484603F059
:100FA00060F829460F9002F07FFE414602F084FF70
:100FB00002F07CFC01F06EFB0022174B02F066F998
:100FC0004FF08042154B01F087FF01F097FE206043
:100FD0000121284603F045F88346294602F064FEC5
:100FE00081464FF040484146384602F05DFE3946A2
:100FF00002F05AFE494602F05FFF4FF07E59494623
:1010000002F080FC824639460F9809E00AD7233B5C
:1010100068000020940D002000806640FB2109C07C
:1010200002F042FE07465846314602F03DFE394680
:1010300002F068FC514601F0F7FCDFF8A4A051462D
:1010400002F032FEDFF89CB0594602F0CFFC60603F
:101050000121304603F005F8314602F025FE07462F
:101060004146284602F020FE294602F01DFE394680
:1010700002F022FF494602F045FC074631460F9830
:1010800002F012FE06462946109802F00DFE314687
:1010900002F038FC394601F0C7FC514602F004FE6C
:1010A000594602F0A3FC02F001FCC4E9020100224F
:1010B000134602F0AFF807D2D4E9020100220A4B2E
:1010C00001F04EFEC4E90201D4E9022300200649E2
:1010D00002F002FBC4E9020113B0BDE8F08F00008A
:1010E00000003443DA0F494000807640FEE70000FC
:1010F00008B50121082000F05DFC4FF4E040ADF898
:10110000000004208DF8030069460248FFF7F3FB56
:1011100008BD0000000C014070B50D460D4C29467D
:101120002046FFF769FC08B1002070BD0A2001F0DD
:1011300047FC29462046FFF75FFC28B92946204690
:10114000FFF75AFC0028F9D00A2001F039FC0120F1
:1011500070BD0000000C014008B50121102000F016
:1011600029FC0121082000F025FC10208DF8030047
:101170004002ADF8000003208DF8020069460248E5
:10118000FFF7B9FB08BD00000010014070B5044630
:101190000D4629462046FFF736FCC0F10100C2B2D9
:1011A00029462046BDE87040FFF736BC7CB50446B2
:1011B0000D4616466B4606223B21682000F0C3F917
:1011C000002814D19DF801109DF8002041EA022367
:1011D00023809DF803109DF8022041EA0221298016
:1011E0009DF805109DF8042041EA022131807CBD64
:1011F0007CB504460D4616466B4606224321682000
:1012000000F0A1F9002814D19DF801109DF80020EC
:1012100041EA022323809DF803109DF8022041EA51
:10122000022129809DF805109DF8042041EA022141
:1012300031807CBD70B50A4C0025256009480168E5
:1012400021F470410160016841F440510160656022
:1012500000F00AF80120206000F006F8256070BD5B
:10126000A8812142040C0140022001F0C3BB000010
:1012700038B50121082000F09DFB4FF44064ADF823
:10128000004010208DF8030003208DF80200054D6A
:1012900069462846FFF72FFB21462846FFF7BAFB91
:1012A00038BD0000000C014070B50A4C00252560D7
:1012B0000948016821F470410160016841F440511E
:1012C000016001266660FFF7CFFF2660FFF7CCFFC5
:1012D000256070BDA8812142040C01402DE9F04732
:1012E000814600241548016821F4704101600168BD
:1012F00041F4004101600025114E00274FF0010824
:10130000C6F8A871FFF7B0FFC6F8A8816006040E02
:10131000D6F82C0108B1641CE4B2FFF7A5FF6D1CE0
:10132000EDB2082DECD3B9F1000F04D0FFF782FF26
:101330002046BDE8F087FFF7B7FFF9E7040C01404E
:10134000008021422DE9F04105461348016821F44F
:1013500070410160016841F4405101600F4E4FF04F
:101360000008C6F8A88100240127E809C6F8AC01E6
:101370006806050EC6F8A871FFF776FFC6F8A881C3
:10138000FFF772FF641CE4B2082CEED3BDE8F04115
:10139000022001F02FBB0000040C0140008021421C
:1013A00070B50A48016821F470410160016841F498
:1013B00040510160064C012060602060FFF754FF3F
:1013C00000256560FFF750FF256070BD040C0140EB
:1013D000A881214210B50B48016821F470410160D9
:1013E000016841F440510160074C002020606060BA
:1013F000FFF73AFF012020606060BDE81040FFF772
:1014000033BF0000040C0140A881214270B50024C4
:101410001148016821F470410160016841F4004104
:1014200001600E4D0126C5F8AC61FFF71DFFC5F840
:10143000A861FFF719FF07E0641CE4B2FA2C03D996
:10144000FFF7C8FF012070BDD5F82C010028F3D1AB
:10145000C5F8A80170BD0000040C014000802142C5
:1014600010B5FFF705FF80216B2000F0DCF8642049
:1014700001F0A6FA00216B2000F0D5F8032000F05F
:101480009FF8022000F097F8C82000F0B6F800217D
:10149000382000F0C8F800216A2000F0C4F80021CC
:1014A000232000F0C0F88021372000F0BCF8752020
:1014B00000F02CF8682804D00AA0FEF7CDFE012029
:1014C00010BD01216B2000F0AEF800216C2000F06F
:1014D000AAF8C82000F091F807A0FEF7BDFE002092
:1014E00010BD00004D50555F496E69745F457272C2
:1014F0006F72210D0A0000004D50555F496E6974EE
:101500005F53756363657373210D0A0010B504465C
:10151000FFF746FFD020FFF715FFFFF777FF2046C4
:10152000FFF710FFFFF772FFFFF73AFFD120FFF739
:1015300009FFFFF76BFF0020FFF7D0FE0446FFF71F
:1015400049FF204610BD2DE9F04106460F461546DD
:101550001C46FFF725FF7006000EFFF7F3FEFFF7AE
:1015600055FF20B1FFF736FF0120BDE8F081384676
:10157000FFF7E8FEFFF74AFFFFF712FF012000EB3D
:101580004600C0B2FFF7DEFEFFF740FF08E0012D86
:101590000CD00120FFF7A2FE20706D1EEDB2641C7E
:1015A000002DF4D1FFF716FF0020DEE70020FFF743
:1015B00095FE2070F1E7C006010E1C2000F033B844
:1015C000C006010E1B2000F02EB8BC2801D301215B
:1015D00010E0622801D302210CE02A2801D3032164
:1015E00008E0142801D3042104E00A2801D30521CE
:1015F00000E006211A2000F016B810B504464FF49A
:101600007A70844200D90446042C00D20424B0FB32
:10161000F4F0401EC1B2192000F005F86008BDE8E2
:101620001040FFF7D2BF70B505460C46FFF7B8FE75
:10163000D020FFF787FEFFF7E9FE18B1FFF7CAFEDB
:10164000012070BD2846FFF77DFEFFF7DFFE204634
:10165000FFF778FEFFF7DAFE18B1FFF7BBFE0120B7
:1016600070BDFFF7B7FE002070BDFEE703460DE03A
:1016700002782A2A03D0202A01D37A2A01D9FF200E
:1016800070472C2A01D1491EC9B2401C0029EFD154
:10169000C01AC0B270470000F8B5044608465AA107
:1016A000FEF7E6FD054601212846FFF7DFFFFF288C
:1016B0001FD02844694600F0B3F806469DF8001094
:1016C0000A2000F0A5F8B6FBF0F042F21071B0FB72
:1016D000F1F104F87E1F6421B0FBF1F2B2FBF1F3EB
:1016E00001FB13226270B0FBF1F201FB1200A0704B
:1016F0007E3C03212846FFF7B9FF444EFF283ED029
:101700002844694600F08CF807469DF80000801CCC
:10171000C1B20A2000F07CF8B7FBF0F044F8810F6A
:101720009DF80000801CC1B20A2000F071F801464B
:10173000B7FBF1F200FB127002F06EFA07469DF85B
:101740000000C0F10500C1B20A2000F061F802F00B
:1017500063FA394602F0A8FA314602F047F9074623
:1017600005210A2000F054F82168484302F054FA99
:10177000394602F0C7F802F017FA44F8810905214A
:101780002846FFF773FFFF283DD02844694600F044
:1017900047F805469DF80000801CC1B20A2000F001
:1017A00037F8B5FBF0F044F8860F9DF80000801C78
:1017B000C1B20A2000F02CF80146B5FBF1F200FBA3
:1017C000125002F029FA05469DF80000C0F105000C
:1017D000C1B20A2000F01CF802F01EFA294602F0FD
:1017E00063FA314602F002F9054605210A2000F0AD
:1017F0000FF82168484302F00FFA294602F082F8F8
:1018000002F0D2F92060F8BD524D43000000704252
:101810000346012000E05843491EC9B2FBD270477D
:101820002DE9F04F80468B4644464FF00009CA46EA
:1018300000270025002620782D2802D146F0020638
:10184000641C20782C2808D02A2806D02E280AD0FC
:1018500030380A280AD300270025B00701D508F13F
:101860000108002418E046F00106641CF00702D0CD
:101870006D1CEDB201E07F1CFFB2641CDBE7381B7E
:10188000401EC1B20A20FFF7C3FF18F80410303918
:1018900000FB0199641CE4B2BC42F0D3052D00D9D1
:1018A00005258BF8005000240DE0281B401EC1B216
:1018B0000A20FFF7ADFF391941444978303900FB60
:1018C00001AA641CE4B2AC42EFD329460A20FFF718
:1018D0009FFF09FB00A0B10700D54042BDE8F08F93
:1018E0007047000070B50F23C27801260178002AE6
:1018F0001ED0144A126802F4E062C2F5E062120AD5
:10190000C2F10404D3404578A54082781A402A43A6
:10191000120101F1E02181F80024007800F01F019C
:101920008E404009800000F1E020C0F8006170BDE9
:1019300001F01F0086404809800000F1E020C0F857
:10194000806170BD0CED00E0024908430249086067
:10195000704700000000FA050CED00E07047000041
:10196000054A002903D0516901435161704751690B
:10197000814351617047000000100240054A002970
:1019800003D0D1690143D1617047D1698143D161ED
:101990007047000000100240054A002903D0116979
:1019A0000143116170471169814311617047000063
:1019B00000100240054A002903D09169014391615A
:1019C00070479169814391617047000000100240A7
:1019D000054A002903D0D1680143D1607047D1681E
:1019E0008143D160704700000010024010B5264AC4
:1019F000516801F00C01254B002927D0042927D07C
:101A0000082927D00360516801F0F0010909204B33
:101A10005C5C0168E1404160546804F4E064240ABD
:101A20001C5D21FA04F48460546804F46054E40AF0
:101A30001B5DD940C160526802F44042920B144BC6
:101A40001B1F9A5CB1FBF2F1016110BD0360DAE784
:101A50000360D8E7516801F47011536803F48033D0
:101A6000022404EB914133B153689B0307D5094B22
:101A700059430160C7E7074B59430160C3E7034B74
:101A800059430160BFE700000010024000127A00D5
:101A90001000002000093D00704700F001B8000070
:101AA0000CB50022019200922748016841F4803170
:101AB00001604FF4A063016801F4003100910199C5
:101AC000491C0191009911B901999942F3D101681A
:101AD000890302D50121009100E0009200990129BB
:101AE00030D11A490A6842F010020A600A6822F0EE
:101AF00003020A600A6842F002020A60416841601B
:101B000041684160416841F480614160416821F46D
:101B10007C114160416841F4E8114160016841F085
:101B20008071016001688901FCD5416821F00301E1
:101B30004160416841F0020141604168C1F38101A7
:101B40000229FAD10CBD0000001002400020024022
:101B50002DE9F041184E4FF480513046FFF7DCFA82
:101B6000164F7514164C012809D129463846FFF73F
:101B70000DFB6268B2F5FA7F01DC32326260294601
:101B80003046FFF7C9FA012808D129463846FFF741
:101B9000FDFA6068322801DB32386060A088094DA8
:101BA00081B2284600F0A2FAA1882846BDE8F0419B
:101BB00089B200F09FBA0000000C01400010014003
:101BC0008C040020000800404FF0E021042804D0DD
:101BD000086920F0040008617047086940F00400BB
:101BE000086170477047000010B56FF00400FFF700
:101BF000EBFF03480921017042F22831418010BDFA
:101C00000200002010B50F48016841F00101016099
:101C100041680D4A1140416001680C4A1140016061
:101C2000016821F480210160416821F4FE014160D6
:101C30004FF41F018160FFF730FF05494FF000604E
:101C4000086010BD001002400000FFF8FFFFF6FE24
:101C500008ED00E00121014800F051B9002C0140DD
:101C600030B589B004460D4601210846FFF786FECF
:101C700001210420FFF79EFE01210820FFF79AFEB4
:101C800001210846FFF796FE01212748FEF786FE50
:101C900001212648FEF782FE0822ADF8202003220B
:101CA0008DF8222018228DF8232008A92048FEF75D
:101CB00022FEADF81840ADF814500020ADF81A001F
:101CC000ADF816004FF0804405A9204600F014FA44
:101CD0007021ADF804100121ADF806100221ADF815
:101CE0000C108C21ADF80A1001A9204600F068F90B
:101CF0000821204600F0A8F90121204600F0D6F87E
:101D000001220221204600F006F90121204600F0C0
:101D1000E8F80121204600F0D8F840F22261204680
:101D200000F0E6F909B030BD0003180000023000F1
:101D3000000C014010B50B4C0121204600F0DFF8EB
:101D400050B10121084800F0BDF8FEF7CDFEFEF7C6
:101D50005DFF0649012008702046BDE810400121C2
:101D600000F0B0B800040040002C0140000000204A
:101D70007FB504460D4601210220FFF7FFFDADF8B7
:101D80000840ADF804500020ADF80A00ADF8060098
:101D9000104C01A9204600F0AFF90122114620465F
:101DA00000F0B9F80121204600F08CF81D218DF8D3
:101DB000001002218DF8011003218DF8021001217D
:101DC0008DF803106846FFF78DFD0121204600F0D5
:101DD0007CF87FBD0004004030B589B004460D4654
:101DE00001210420FFF7CAFD01210820FFF7E2FDD1
:101DF00001210846FFF7DEFD4FF4A072ADF8202068
:101E000003228DF8222018228DF8232008A92548C6
:101E1000FEF771FDADF81840ADF814500024ADF890
:101E20001A40ADF81640204D05A9284600F064F987
:101E30007021ADF804100121ADF806100221ADF8B3
:101E40000C104FF4FA71ADF80A1001A9284600F001
:101E50006DF80821284600F0ADF8ADF80A4001A958
:101E6000284600F0FBF80821284600F039F9012146
:101E7000284600F01BF801220221284600F04BF80A
:101E80000121284600F02DF80121284600F01DF818
:101E90000021284600F02AF90021284600F02AF9FE
:101EA00009B030BD000C014000080040002904D0FA
:101EB000018841F0800101807047018821F0800194
:101EC00001807047C94301827047002904D001880E
:101ED00041F0010101807047018821F0010101807A
:101EE0007047002905D030F8441F41F400410180BB
:101EF000704730F8441FC1F30E010180704702465D
:101F00000020138A0B4092890A40002B02D0002A3D
:101F100000D001207047002A03D082890A438281C1
:101F2000704782898A4382817047000030B5028CF5
:101F300022F001020284028C8388048B24F0700456
:101F400024F003050C882C4322F002020D8915436E
:101F50004A882A43124DA8420BD0124DA84208D0FD
:101F6000114DA84205D0114DA84202D0104DA842F3
:101F70000FD122F008054A892A4322F004058A88F5
:101F80002A4323F4807323F400738D891D43CB8986
:101F90002B4383800483C9888186028430BD00007E
:101FA000002C014000340140004001400044014049
:101FB00000480140028B22F008020A430283704766
:101FC00070B5028C22F010020284028C8388048B8C
:101FD00024F4E04424F440760D884FF6FF7404EABC
:101FE0000525354322F020020E8904EA0616164321
:101FF0004A8804EA02123243114EB04202D0114E16
:10200000B04217D122F080024E8904EA0616164328
:1020100026F040068A8804EA0212324323F48063E1
:1020200023F400638E8904EA86061E43CB8904EA02
:102030008303334383800583C9880187028470BD8D
:10204000002C014000340140028B22F400624FF664
:10205000FF7303EA012111430183704770B5028CBD
:1020600022F480720284028C8388848B24F07004B2
:1020700024F003040D88254322F400720E894FF6E4
:10208000FF7404EA062616434A8804EA0222324311
:10209000114EB04202D0114EB04217D122F4006668
:1020A0004A8904EA0222324322F480668A8804EADA
:1020B0000222324323F4805323F400538E8904EA2E
:1020C00006161E43CB8904EA0313334383808583BA
:1020D000C9888187028470BD002C01400034014012
:1020E000828B22F008020A43828370478186704700
:1020F000018770478187704730B502881B4C1C4DA3
:10210000A0420DD0A8420BD0B0F1804F08D0194B9F
:10211000984205D0184B984202D0184B984203D1F0
:1021200022F070034A881A43154B984206D0154B8B
:10213000984203D022F44073CA881A4302808A88E6
:1021400082850A880285A0420AD0A84208D00E4A99
:10215000904205D00D4A904202D00D4A904201D1E2
:10216000097A01860121818230BD0000002C0140E6
:10217000003401400004004000080040000C004012
:1021800000100040001400400040014000440140A5
:102190000048014070B5164C40F22551204600F031
:1021A0003EF900280ED0204600F0D2F9C1B2114A03
:1021B0001088030406D444044FF0000307D50A290D
:1021C00001D0138070BD40F40040108070BD0D2917
:1021D0000AD0094DC0F30D042955401C80B210806F
:1021E000C728F3D9138070BD40F48040108070BDC3
:1021F00000380140060000209404002070B5194CFE
:1022000040F22441204600F00AF9002829D0204657
:1022100000F09EF94021204600F08EF8124E002179
:102220003046FEF71FFA11490F4A08786C3A01252B
:1022300030B10F4CA4F5007090670020087003E0E7
:102240000C4C0B4890670D704FF400701067012123
:102250003046FEF707FA21460748FEF7E3FB07483A
:10226000057070BD004400406C000240200000205A
:10227000600B002060090020322D00208C0400201B
:10228000F0B587B0044601210420FFF793FB01213C
:102290004804FFF773FB264E304600F067F804252C
:1022A000ADF8145003208DF8160018208DF8170093
:1022B000204F05A93846FEF71EFB0820ADF8140094
:1022C0008DF8175005A93846FEF715FB019400203C
:1022D000ADF80800ADF80A00ADF80C00ADF810003C
:1022E0000C20ADF80E0001A9304600F0D3F8012211
:1022F00040F22441304600F0B2F84021304600F070
:102300001BF80121304600F01BF826208DF818003C
:1023100002208DF8190001208DF81A008DF81B009D
:1023200006A8FFF7DFFAFEF71FF907B0F0BD0000BF
:1023300000440040000801408A05C94301807047FD
:10234000002904D0818941F400518181704781893D
:1023500021F4005181817047002A03D0828A0A4308
:1023600082827047828A8A438282704710B52349ED
:1023700088420AD101218C032046FFF729FB204621
:10238000BDE810400021FFF723BB1D4988420AD158
:1023900001214C042046FFF7FFFA2046BDE810401B
:1023A0000021FFF7F9BA174988420AD101218C04AC
:1023B0002046FFF7F1FA2046BDE810400021FFF764
:1023C000EBBA114988420AD10121CC042046FFF71B
:1023D000E3FA2046BDE810400021FFF7DDBA0B49C3
:1023E00088420AD101210C052046FFF7D5FA204684
:1023F000BDE810400021FFF7CFBA10BD0038014002
:102400000044004000480040004C004000500040A4
:102410000246002012880A4200D00120704770B5A1
:10242000002440F66A12C1F3421301F01F05012691
:1024300006FA05F2012B0CD0022B0DD0838A134033
:10244000090A8E40008830400BB100B101242046BB
:1024500070BD83891340F3E7038A1340F0E710B59A
:1024600040F66A13C1F3421301F01F040121A14099
:10247000012B07D0022B07D014303AB102680A436F
:10248000026010BD0C30F8E71030F6E702688A43AE
:10249000026010BD30B585B004460D46208A4CF66A
:1024A000FF710840E98801432182A0894EF6F311AB
:1024B0000840A9882A8911436A8902431143A181EE
:1024C000A08A4FF6FF410840A9890143A1826846CE
:1024D000FFF78CFA1D48844201D1039800E002986E
:1024E000A189090408D500EBC00101EB001029689F
:1024F0004900B0FBF1F007E000EBC00101EB001078
:1025000029688900B0FBF1F06422B0FBF2F1090107
:102510000B096FF018056B4300EB8300A3891D04C2
:102520004FF0320307D503EBC000B0FBF2F000F030
:102530000700084306E003EB0010B0FBF2F000F0E8
:102540000F000843208105B030BD00000038014075
:102550008088C0F3080070472DE9F04107460D461A
:102560001646002405E0295D384600F006F8641C94
:10257000A4B2B442F7D3BDE8F08110B504462046BA
:1025800000F007F880212046FFF742FF0028F9D02D
:1025900010BDC1F3080181807047FEE7490050EA91
:1025A000C12018BF04204A0D18BF40F0010040F2BE
:1025B000FF72B2EB515F08BF40F00200012808BF74
:1025C000052070472DE9F0414F1E00EBC70104467E
:1025D000D1E9000115461E4637F006020DD02A4605
:1025E000334600F053FE7F1E04EBC703D3E90023FC
:1025F00000F0B6FB37F00602F1D1022F25D0042FF0
:1026000013D0062F18BFBDE8F0812A46334600F0EC
:102610003DFED4E90A2300F0A3FB2A46334600F02E
:1026200035FED4E9082300F09BFB2A46334600F030
:102630002DFED4E9062300F093FB2A46334600F032
:1026400025FED4E9042300F08BFB2A46334600F034
:102650001DFED4E9022300F083FB2A46334600F036
:1026600015FED4E90023BDE8F04100F079BB01225A
:1026700001F0C9BC002213461046114600F02CBCE4
:10268000024A0020110701F0BEBC000001FDFFFF5F
:10269000704700002DE9F04104460D46264E4FF0EC
:1026A00080470022254B2046294600F0B3FD03D881
:1026B00038462349BDE8F0810022334620462946AA
:1026C00000F0E2FE02D838461E49F3E70022334606
:1026D0002046294600F044FB4FF0FF3201F093FC06
:1026E0000022194B00F0D2FD04460D462046294633
:1026F00000F04AFD8046404600F075FD22462B461C
:1027000000F0F8FE06460F46104901EBC80008F13C
:10271000010830C801EBC801224603C92B4600F06E
:10272000DBFF32463B4600F0B1FD22462B46BDE8BA
:10273000F04100F015BB00000000F03F0000F0BFCA
:10274000FB21F9BFFB21F93F00388F40C00D00206D
:102750002DE9F04D8D4F21F0004A86B005460C461C
:10276000BA452ADBAAEB070028430AD088488245ED
:1027700001DC1AD1CDB106B02846BDE8F04DFFF717
:1027800076BF844A844B284600F080FD07460E46FB
:10279000824A834B2846214600F078FD06B03A462F
:1027A0003346BDE8F04D00F0DBBA0120FDF77BFDBC
:1027B00006B0BDE8F04DFFF75DBF7A48824542DACA
:1027C000BAF1795F0BDA2846FFF7E8FE042808BF64
:1027D000FFF756FF284606B02146BDE8F08D2A4691
:1027E0000B46104600F052FD834602466E480E46E8
:1027F0000B4606217844FFF7E5FE5A46334600F0C3
:1028000045FD804669488A465A4633460421784445
:10281000FFF7D8FE5A46334600F038FD00223B460B
:1028200000F09EFA02460B464046514600F054FB2B
:102830002A46234600F02AFD06B02A462346BDE874
:10284000F04D00F08DBA284624F0004100223D46AC
:102850003B4600F04FFE4FF0FF3201F0D4FB06463E
:10286000024653480F460B4606217844FFF7AAFE5E
:1028700032463B4600F00AFDCDE900014D483246A4
:102880003B4604217844FFF79DFE32463B4600F06C
:10289000FDFC00222B4600F063FA8346029130468D
:1028A000394600F0B5F9804643480D46504517DCDF
:1028B000DDE900015A46029B00F00EFB42462B4622
:1028C00000F0E4FC42462B4600F04AFA012201F0F7
:1028D0009AFB304A304B00F0FFFE304A304B4CE060
:1028E0004FF0000A52460B46404600F039FACDE957
:1028F000031052462B461046194600F0C7FC3246DC
:102900003B4600F0F7FDDDE9033200F0E5FA06464C
:102910000F46DDE900015A46029B00F0DDFA8346CE
:10292000009101223046394601F06DFB194A1A4BDD
:1029300000F0E0FD06460F4601224046294601F020
:1029400062FB5A46009B00F0A1FC32463B4600F079
:10295000C3FE06460F4601225046294601F053FBAE
:102960000E4DDFF858802A46434600F0C3FD32463C
:102970003B4600F0BFFD2A46434600F0BBFD002C5D
:10298000D8BF81F0004106B0BDE8F08D0000F03FF7
:102990000000F07F075C143326A6913C182D4454A8
:1029A000FB21F93F0000E03FE8180000FE1800009E
:1029B00072180000881800003333EF3FFB21E93F15
:1029C0000B49498848434FF0E021486100238B615F
:1029D000086940F0010008610869C20701D0C0031E
:1029E000FAD5086920F0010008618B61704700008A
:1029F000020000200B49097848434FF0E02148616C
:102A000000238B61086940F0010008610869C20772
:102A100001D0C003FAD5086920F0010008618B617C
:102A200070470000020000202DE9F05F05460E46C9
:102A300015F0FF4F14D016F0FF4F11D0284600F0CC
:102A4000E1F88146304600F0DDF8804641464846D0
:102A500001F0F6F807D24146484600F0C7FF06E00D
:102A60000020BDE8F09F4946404600F0BFFF3049D6
:102A7000304F884201DA044622E0082101F0F1FAE1
:102A80004FF07C5101F018FA8246504601F070F880
:102A90000446204601F0A8F8514601F002FA8246A9
:102AA000254A52F824108B46641C52F8240001F089
:102AB00003FA514601F0F8F8594600F023FF0446A6
:102AC0004946404601F0BCF916D2BE4206D2BD428C
:102AD00001D22046C5E784F00040C2E71748BD4256
:102AE00004D22146BDE8F05F01F0E6B90146204678
:102AF000BDE8F05F01F0E0B9BD420CD21048BE4223
:102B000004D22146BDE8F05F01F0D6B92146BDE808
:102B1000F05F00F0F7BE0B48BE4204D22146BDE88C
:102B2000F05F00F0EFBE2146BDE8F05F01F0C4B9F0
:102B30008180803B0000808088000020DB0F4940BE
:102B4000DB0FC93FDB0FC9BF04490A885206FCD519
:102B5000024AC1B2121D11807047000000380140C6
:102B60002DE9F04100240F4FDFF83C800F4D4FF46A
:102B70007A76204600F037FB012201F044FA002269
:102B80003B4600F0A9F90022434600F0E9F8FFF7C0
:102B9000DFFD05EBC40203C2641CB442E9DBBDE8FF
:102BA000F081000000388F400000F0BFC00D002011
:102BB000FDF79AFC044C002520780128FCD1FDF794
:102BC0005BFC2570F8E700000000002010B504460B
:102BD0004FF0FF31204601F044FA0949A1EB6404AB
:102BE000214601F061F8214601F05EF84FF07F5177
:102BF00001F057F92146BDE8104001F055B800003A
:102C0000865A375F10F1FF4F01D380F000407047C4
:102C10002DE9F04106460F4600F078FC041E0D46F3
:102C200018BF0120284320F00040C0F17F6000F170
:102C3000E040C00F0ED0301C18BF0120384320F0F8
:102C40000040C0F17F6000F1E040C00F04BF0120F0
:102C5000FDF729FB20462946BDE8F08170B586B016
:102C60000546012144F20400FEF7A4FE4FF4007073
:102C7000ADF8140003248DF8164018218DF81710B4
:102C80001C4E05A93046FDF736FE3115ADF814107F
:102C900004218DF8171005A93046FDF72CFE2520DC
:102CA0008DF800008DF801408DF8024001208DF86C
:102CB00003006846FEF716FE01950020ADF80800F7
:102CC000ADF80A00ADF80C00ADF810000C20ADF81E
:102CD0000E00094C01A92046FFF7DCFB012240F25F
:102CE00025512046FFF7BBFB01212046FFF728FBBB
:102CF00006B070BD000801400038014021F00042DC
:102D0000A2F16052B2F5801F01F0004328BFD2F15A
:102D10007F6C0BD95FEA001C43EAC20242EB5070A1
:102D200018BF704728BF20F001007047B2F5801F20
:102D3000BCBF184670474FEA410C1CF5001F02D279
:102D4000084601F078B870B500F04AFB0000008931
:102D5000FFF7F6BF4FF00040A0F58000704700007D
:102D600010B591EA030F48BF83F0004300F1BC8423
:102D7000841A71EB030C05D2121943EB0C03001BF0
:102D800061EB0C01DFF824E14FEA1154A4EB135C72
:102D90001EEA430F18BF9EEA445F73D023EA0E0376
:102DA000DCF1200E21EA045143F4801332D322FADD
:102DB0000CFE10EB0E0023FA0CFE41EB0E01CCF1E1
:102DC000200E03FA0EFE10EB0E0051F10001B1F5DA
:102DD000801FCCF1200E32D201EB045112FA0EF218
:102DE000BDE8104058BF7047401C38BF5FEA420240
:102DF00018BF7047002814BF20F0010041F1000106
:102E00004FEA410313F5001F38BF7047A1F1C041DD
:102E100000F034BB012A43EB0302ACF1200CDCF1DF
:102E20001F0E32BF4FF0000E23FA0CF310EB03001D
:102E300041EB0451B4EB115FD0D0A1EB045101F58B
:102E4000801149085FEA300001EB04510ED350F1C4
:102E5000000038BF12FA0EFE08D1BDE81040C9E7E5
:102E6000401C38BF5FEA4202CAD1C3E7BDE8104048
:102E70004FEA410313F5001F38BF7047A1F1C0416D
:102E800000F0FCBA9EEA445F08D011EA5E0FBDE88C
:102E9000104004BF01F0004100207047BDE8104021
:102EA00070B500F09DFA00BF64FBBE3E0000E0FF7D
:102EB00002494FF0000001F074B800BF0000F87F35
:102EC000491058BFC1F140415B1058BFC3F14043A6
:102ED0008B42EFF3008070472DE9C04130B4DFF83A
:102EE000A0C23CEA111418BF3CEA131400F0EC80B5
:102EF00081EA03051CEA111444EAD57418BF1CEAE0
:102F0000131500F0C780A4EB05044FF0004545EA17
:102F1000C12145EAC32341EA505143EA525304F127
:102F20007F74994204F500344FEAC0204FEAC22270
:102F300008BF904200F09C804FEA13650FF24016E4
:102F4000765D4FEA134506FB05F7C7F1807706FB70
:102F500007F74FEAD737A7FB03687642C8F58038F2
:102F6000A7FB06CE38BFA8F1010807FB08E64FF023
:102F7000000EA6FB028CE6FB03CEDCF1000CCEF1CA
:102F8000004E38BFAEF1010EA6FB0C584FF0000703
:102F90004FF00005E6FB0E87A1FB08C6A0FB07CE9D
:102FA00016EB0E0645F10005E1FB076515F1E04E55
:102FB0007EBFA4F580345FEA46066D4116F18007B6
:102FC00045F100054FEA17274FEA066647EA05670D
:102FD000A6F1DE46B6F1805F4FEA15251FD93846C7
:102FE00024F0010C05EBC471BCF1FE6F01EB0C1178
:102FF00002D8F0BCBDE8008124425CBF01F5801E10
:103000009EEAC47F02D4F0BCBDE80081244238D4DB
:10301000F0BCA1F1C041BDE8004100F02FBA4FEA79
:10302000D22242EA43524FEAD323A7FB02864FEA59
:10303000D02040EA415007FB03661EEA0E0F4FEA1C
:10304000D12105FB026658BFA6EB0056B6EB005631
:103050004FEA520E4EEAC37E18EB0E0E56EB530E9D
:10306000BDD518EB02085E417F1C55F10005B6E79F
:103070004FF480154FF000074FF000064FF00008A6
:10308000ADE7F0BC4FF0000001F1C04101F000419C
:10309000BDE8008111EA0C1F0CEA131500D00CE00A
:1030A00013EA0C1F00F025804FF00000F0BC81EA0D
:1030B000030101F00041BDE80081F0BCBDE8004122
:1030C00081EA030100F0DAB9F0BCBDE8004170B557
:1030D00000F086F9097EFC3E00F007B881EA0301A2
:1030E0004FF0000001F00041704781EA030100F059
:1030F000C5B9F0BCBDE800414FF000002149704760
:10310000FFFDFBF9F7F5F4F2F0EEEDEBE9E8E6E4AC
:10311000E3E1E0DEDDDBDAD8D7D5D4D3D1D0CFCD33
:10312000CCCBCAC8C7C6C5C4C2C1C0BFBEBDBCBB6C
:10313000BAB9B8B7B6B5B4B3B2B1B0AFAEADACAB67
:10314000AAA9A8A8A7A6A5A4A3A3A2A1A09F9F9E41
:103150009D9C9C9B9A9999989797969595949393F3
:10316000929191908F8F8E8E8D8C8C8B8B8A89898A
:10317000888887878685858484838382828181800D
:103180000000FF070000F87F4FEA41034FEA535366
:10319000A3F58063D3F11E03C8BFD3F1210C0CDD6E
:1031A0004FF0004242EAC12242EA505232FA03FC96
:1031B0008CEAE17CACEBE1707047102BC4BF0020BF
:1031C000704703F5787CBCF1FF3F04D06FF00042FC
:1031D00082EA2100704770B500F002F9499224801C
:1031E00000207047F2E710F0004248BF4042B0FABA
:1031F00080F310FA03F10AD0C3F11D0303F58063D5
:103200004FEA415002EB035202EBD12170474FF0DD
:103210000000704751EA030C17D41CF5801F58BFFB
:10322000BCF5801F00F10680994218BF704708BFA7
:103230009042704707D711F5801F58BF13F5801FC4
:1032400019D499427047894270471CF5801F08D5F0
:10325000BCF5801FF7D58B4218BF704708BF82426C
:1032600070474FF4001C1CEB410F38BF1CEB430FA1
:1032700001D28B42704770B500F0B2F89224490039
:103280004FF000514FF08053FFF71ABEDFF848C1EE
:1032900070B51CEA111E1EBF1CEA13159EEA0C0F26
:1032A00095EA0C0F00F06F8081EA030423EA4C13C7
:1032B0004EEAD47E21EA4C1141F4801143F480138C
:1032C000AE44A1FB024CA0FB0365AEF17F7E361934
:1032D00055EB0C05A1FB034C4CF10003A0FB021CB9
:1032E00016EB0C06654153F10003094218BF46F086
:1032F000010613F4007F0BD14FEA03314FEA05308A
:10330000340341EA155140EA16506FF003020AE017
:103310004FEAC3214FEAC520F40241EA555140EA81
:1033200056506FF0020202EB2E4201EB025585EA85
:10333000CE710AD05FEA440C18BF24F0004450F16B
:10334000000041F1000120EAD47040F2FE7C6245A9
:1033500000D270BDA84214BF4FF080444FF04044EB
:10336000002E08BF0024BEF1806FA8BFA1F1C041AC
:10337000BDE8704080F282804FF0000001F1C04152
:1033800001F0004170479EEA0C0F0CEA131518BFBC
:1033900095EA0C0F06D04FF0000081EA030E0EF004
:1033A000004170BD00F01CF88900013E00F007B834
:1033B00000F009B84FEA430C5FEA5C5C08D081EA90
:1033C000030100F05BB84FEA410C5FEA5C5CF6D1A8
:1033D0004FF00000014970470000FF070000F87F30
:1033E0000EF1020E2EF0030E5EF8046B364205D489
:1033F000012A43EB030515F5001F12D8012841EB04
:10340000010C1CF5001F0CD80ED14FEAD17C15F52C
:10341000001F0CEB4C0C0CF1020C08BF4CEBD37CE6
:1034200004E04FF0080C01E04FEAD37C0CEB4C05B4
:1034300026FA05F606F00706B6F1040C06D20EEBE6
:10344000860CBDE870404CF0010C6047DFE80CF0E2
:10345000090B02024FF000414FF00000A1F50021DE
:1034600070BD19461046012851EB010418BFD4F570
:10347000001484BF002001F0004170BD0808A0F5D1
:1034800000114FEA3101704753EA010C17D41CF5C3
:10349000801F58BFBCF5801F00F106808B4218BF0B
:1034A000704708BF8242704707D713F5801F58BF87
:1034B00011F5801F19D48B4270479B4270471CF551
:1034C000801F08D5BCF5801FF7D5994218BF7047FB
:1034D00008BF904270474FF4001C1CEB430F38BFED
:1034E0001CEB410F01D2994270470FB40CBC03BCD6
:1034F000FFF7C1BE91EA030F10B581F000413FF51F
:1035000037AC83F0004300F0EFB800002DE9F04144
:1035100001F5801CBCF5001FC0F2C3804FEA115CAE
:1035200021EA0C510CF1FD0C41F480115FEA5C0CB6
:103530000CF5C07C01D3400049413DA4890241EA19
:10354000905187028E0E0A0CA45D04FB04F602FB68
:1035500006F6C6F14046A4FB0662F60D46EA422690
:1035600006FB06F4A4FB01235242C3F1404338BFDB
:103570005B1EA6FB02420024E6FB0324D20B42EAB8
:103580004446A6FB0623A1FB02E2A3FB07E4A41822
:103590004FF0000252F10002E3FB01426442C2F12B
:1035A000404E38BFAEF1010EA6FB04234FF00002DF
:1035B000E6FB0E32A2FB03464FF00004B61954F1AD
:1035C0000004E2FB0264A1FB06E6A4FB07E816EB9D
:1035D00008064FF0000858F10008E4FB0168764245
:1035E000C8F1405838BFA8F10108A2FB06E4A3FBCC
:1035F00008E52D194FF0000454F10004E2FB0854D3
:10360000A1FB05E6A7FB04E818EB06084FF000064F
:1036100056F10006E1FB048618F1200556F100067C
:10362000A809A8F11B08B10908F03F08B8F10A0F72
:1036300040EA86601CD901EB0C51BDE8F08100BF67
:10364000FCF5EEE8E2DDD8D3CFCBC7C3C0BDB9B639
:10365000B4B1AEACA9A7A5A3A19F9D9B9A9896953E
:103660009392908F8D8C8B898887868584838281C5
:10367000A0FB006800FB01F208EB4208B8EB8728CA
:1036800007D5341858EB0104D5D5401C51F1000181
:10369000D1E7341A78EB0104CDD4401E71F100015A
:1036A000C9E75FEA4C0C5FEA9C5C0DD105D34FF093
:1036B000000001F00041BDE8F081BDE8F04170B5C7
:1036C000FFF78EFE6DDBFFBEBDE8F0414FF000005E
:1036D000004970470000F87F10B591EA030F48BF1A
:1036E00083F000433FF544AB841A71EB030C07D21F
:1036F00012198CF0004C43EB0C03001B61EB0C0126
:10370000DFF8A4E14FEA1154A4EB135C1EEA430F67
:1037100018BF9EEA445F00F0B08023EA6E03524275
:1037200021EA0451C3EB6E0338BF5B1EDCF1200EAF
:1037300025D322FA0CFE10EB0E0043FA0CFE41EBEF
:103740000E01CCF1200E03FA0EFE10EB0E0051F12B
:103750000001CCF1200E29D412FA0EF201EB045133
:10376000BDE8104058BF7047401C1CBFB2F1004F6D
:10377000704700280CBF491C20F00100704712EB75
:10378000020E43EB030218BF4FF0010E4EEA420255
:10379000ACF1200CDCF11E0E54D943FA0CFE10EBF8
:1037A0000E0051F1FF31CCF11E0ED5D50EF1010EF8
:1037B00012FA0EFE404141EB010101EB445C5FEA6D
:1037C0005C5C10D910EBDE7001EB045138BFBEF128
:1037D000004FBDE8104018BF704700280CBF491CBF
:1037E00020F00100704730D24FEAD42C11F50011BF
:1037F00024F400641BD0B1FA81F20B3AA41AA41E7F
:10380000D2F12003914030FA03F31943904001EBC9
:10381000CC71002C01EB0451BDE81040A8BF7047EB
:1038200001F1C0414FF0000001F000417047B0FAD3
:1038300080F310FA03F100D110BDE41A173C4805DB
:10384000C90AE4E701EB045110BD491001EB045132
:10385000BDE810404FEA300002E04FF00001704731
:103860004A0008BF0042F8D0B2F5001F28BF7047D9
:1038700001F000414FF0000070479EEA445F07D01E
:1038800011EA5E0FBDE8104004BF00210020704720
:10389000BDE8104070B5FFF7A3FD00BF40DFF63E66
:1038A00083F00041104670470000E0FF43004FEAFC
:1038B000D30C4FEA3C0C43401FBF40070CF1605152
:1038C00013F0FE4F70471CF0006F03D100200CF086
:1038D000004170470CF0004343EA507010B540EAD5
:1038E000CC0000F062FA00BF000000924FEA000135
:1038F000FFF7C4BD4FF000414FF00000A1F50021DB
:103900007047000090EA010F48BF81F0004100F1CC
:10391000DA82421A3CBF801A89184FEAD0524FF01F
:103920007F4C1CEA410FA2EBD15318BF9CEA026FF7
:1039300000F03B804FF0004C4CEA00204CEA0121A3
:1039400021FA03FC10EB0C0C1ED202F1FF325FEAED
:103950001C2040EBC25038BF70471CF07F0F4FEA6D
:10396000400C18BFBCF17F4F38BF7047C3F1200334
:10397000994008BF20F00100BCF17F4F38BF70476D
:10398000A0F1C04000F057BA4FEA3C00000A40EBFB
:10399000C25028BF1CF0FF0F4FEA400CE6D018BF02
:1039A000BCF17F4F38BF7047EAE79CEA026F05D051
:1039B00010EA5C0F08BF00F00040704710B500F03F
:1039C000F4F900BF64FBBE3E014800F0EABA00BF54
:1039D0000000C07F401058BFC0F14040491058BFA0
:1039E000C1F140418142EFF3008070474FF47F0CFA
:1039F0001CEAD0121EBF1CEAD11392EA0C0F93EA04
:103A00000C0F00F0858090EA010F48BF42F48072ED
:103A100040F4000C41F400002CF07F4120F07F4086
:103A200000B58142A2EB03020FF2081CACEB504E32
:103A3000C0F100009EF800E04FEA4E0E00FB0EFCC5
:103A400038BF49004FEA2C1C02F5FA020CFB0EF3BA
:103A50004FEACE1E4FEA112C4FEAC1210EEB635EF6
:103A600042EB22420EFB0CFC4FEA1C5300FB0311FD
:103A70004FEA112C4FEA01310EFB0CFC4FEADC4CF3
:103A800000FB0C11C14228BF09184CEB03335DF851
:103A900004EB10EB410143EBC250B2F57C0F38BF91
:103AA000704729D512F0F00F1CBF00F1C04000F0A4
:103AB00000407047008182838485868788898B8C4B
:103AC0008D8E8F919293959697999A9C9D9FA0A287
:103AD000A3A5A7A8AAACAEB0B2B3B5B7B9BCBEC0D7
:103AE000C2C5C7C9CCCED1D4D7D9DCDFE2E6E9EC78
:103AF000F0F3F7FAFE0000004FEA400C0CF1807C76
:103B0000BCF17E4F28BF7047B0F1C04000F093B9C0
:103B100090EA010F0CEAD11348BF42F4807262456B
:103B200038BF634507D213F47F0F16D080EA010037
:103B300000F00040704710B500F037F9097EFC3EF8
:103B400000F005B880EA010000F00040704780EA0C
:103B5000010000F0004000F06EB912F47F0F04BFC6
:103B60000248704780EA010000F065B90000C07F9C
:103B700041000B0ED3F19E0208D950F400034FEA26
:103B8000032323FA02F048BF4042704710B500F00B
:103B90000CF900BF49922480002070476FF000426A
:103BA00082EA200070470000C10DD1F19E0206DBC1
:103BB0004FEA002343F0004323FA02F0704700422B
:103BC00007D54FEA4001B1F1FE4F02D24FF000009D
:103BD000704710B500F0E9F8499224800020704742
:103BE0006FEA20007047000010F0004148BF4042DB
:103BF000B0FA80F310FA03F2C3F19D030BD051EA3F
:103C0000C35101EB1220530638BF704700F1010089
:103C100008BF20F001007047B0FA80F310FA03F2F9
:103C2000C3F19D030AD0D90501EB1220530638BF1A
:103C3000704700F1010008BF20F00100704700004C
:103C400050EA010C00F113801CF5000F58BFBCF5C1
:103C5000000F01D48842704707D710F5000F58BFF6
:103C600011F5000F15D488427047894270471CF542
:103C7000000F04D5BCF5000FF7D5814270474FF017
:103C8000807C1CEB400F38BF1CEB410F01D28142FE
:103C9000704710B500F089F8922449004FF00050A9
:103CA0004FF08051FFF796BE4FF47F0C1CEAD01204
:103CB0001EBF1CEAD11392EA0C0F93EA0C0F00F01E
:103CC000478090EA010F48BF42F480724FF0004CE9
:103CD0004CEA00204CEA012102EB0302A0FB011395
:103CE000A2F50002002918BF43F001035B0028BFC2
:103CF0004FEA330342EB22425FEA132C4CEBC250F3
:103D00002EBFBCEB436FB2F57C0F70474FEA036CDC
:103D1000BCF1004F08BF20F00100B2F57C0F38BFA6
:103D200070470BD582F0FF0212F5803FC8BF704785
:103D300000F1C040D8BF00F00040704700F5000C13
:103D40005FEA4C0C48BF7047B0F1C04000F073B858
:103D500090EA010F0CEAD11348BF42F48072624529
:103D600038BF634504D280EA010000F0004070478C
:103D700010B500F01AF800BF8900013E00F007B846
:103D800000F009B85FEA410C5FEA1C6C08D080EAD9
:103D9000010000F050B85FEA400C5FEA1C6CF6D1FD
:103DA0004FF00040A0F5800070470EF1020E2EF09B
:103DB000030E5EF8044B244204D44FEA4102B2F1F0
:103DC0007F4F11D84FEA4003B3F17F4F0CD80ED18B
:103DD0004FEAD07CB2F17F4F0CEB4C0C0CF1020C93
:103DE00008BF4CEBD17C04E04FF0080C01E04FEA37
:103DF000D17C0CEB4C0324FA03F404F00704B4F177
:103E0000040C06D20EEB840CBDE810404CF0010C03
:103E10006047DFE80CF0070802024FF00040A0F511
:103E2000800010BD0846420018BFD2F1807288BFE2
:103E300000F0004010BDFF2141EAD050C00570479E
:103E400051EA000C00F113801CF5000F58BFBCF5BF
:103E5000000F01D48142704707D711F5000F58BFFA
:103E600010F5000F15D481427047894270471CF548
:103E7000000F04D5BCF5000FF7D5884270474FF00E
:103E8000807C1CEB410F38BF1CEB400F01D28842F5
:103E9000704780EA010081EA000180EA0100FFF733
:103EA000F8BE80F0004090EA010F7FF532AD81F05E
:103EB000004100F008B8000090EA010F48BF81F00F
:103EC00000413FF526AD421A04D882F00042A0EB33
:103ED000020011444FEAD0524FF07F4C1CEA410FD0
:103EE000A2EBD15318BF9CEA026F4AD04FF0004CAE
:103EF0004CEA00204CEA012121FA03FCB0EB0C0C47
:103F00000FD412F0FE0F36D05FEA4C001DD5001220
:103F100040EBC25038BF70471CF03F0F18BF7047CE
:103F20000BE0A2F101025FEA1C2040EBC25038BF57
:103F300070471CF07F0F18BF7047C3F120039940F2
:103F400014BF401E20F00100704780084FEA122382
:103F500008BF7047B0FA80FCA2EB0C02CCF1280C31
:103F600060FA0CF093EA122F04BF00EBC2507047C6
:103F70004FEAC3707047130A5FEADC1008BF70474E
:103F8000F6E79CEA026F04D010EA5C0F08BF00203D
:103F9000704710B5FFF709FF40DFF63E81F00040A3
:103FA00070470CF00F03092B08BF082000F07F803A
:103FB0000A2B0BD0082B18BF704708BF1CF0400F0E
:103FC0000AD04FF000004FF0000170471CF0400F86
:103FD00018BF4FF0004070471CF0100F08D020F0C1
:103FE000704300F07F4242EAD3014FEA43707047CA
:103FF00000F0604021F07F4242EA000201F07F4081
:1040000040EA727070474FF0FF0C4CF4E06C1CEA11
:1040100011531CBF9CEA030C9445C2BFDA4201EB6A
:1040200002517047002B0DD0BCF1000F0FD0002AB9
:1040300001F00041A4BF41F0E04141F07F614FF049
:104040000000704701F000414FF00000704750EA57
:1040500001334FF09B0C18BF4CF0806C7EF428AFFE
:1040600070474FF0FF0212EAD0521CBF92F0FF03DC
:104070008B42C2BFD14200EBC1507047002A0AD028
:10408000002B0BD0002900F00040A4BF40F0FE4000
:1040900040F40000704700F00040704743024FF0CA
:1040A0000B0C18BF4CF0806C7FF48EAC70471CF486
:1040B000801F11D01CF4E02F03D06FEACC314900EF
:1040C00070474FF04050EFF3008222F0704242EA16
:1040D000000282F3008870474FF000007047000034
:1040E000555555555555C53F7D6FEB0312D6D4BF79
:1040F0005544880E55C1C93F3B8F68B52882A4BF7F
:1041000088B20175E0EF493F09F7FD0DE13D023F3F
:104110004B2D8A1C273A03C0C88A599CE52A0040C7
:1041200059018D1B6C06E6BF82922EB1C5B8B33F14
:104130005041000800000020940400006C010008B9
:104140009045000894040020A42F0000D00100082E
:10415000920001200502040608082005010203045C
:104160000430050607080910111C000E33CDCCCC15
:104170003D6F12833A0AD7A33B00010318803F101A
:10418000410C00FF005680803BD37F003C77BE404F
:104190003CCF7D803C5B9BA03CA6B7C03C6ED2E090
:1041A0003CB775003D3581103D918B203DAB94307F
:1041B0003D609C403D92A2503D25A7603DF1A97015
:1041C0003D6F55803DE354883D4753903D8C50985A
:1041D0003D9F4CA03D7247A83DF740B03D1B39B80C
:1041E0003DD22FC03D0C25C83DB218D03DC60AD8DF
:1041F0003D2DFBDF3DD9E9E73DB0D6EF3DBEC1F730
:104200003DDBAAFF3D04C9033E95BB073E20AD0B35
:104210003E979D0F3EF58C133E397B173E56681B2B
:104220003E3E541F3EF83E233E7728273EB4102BD7
:104230003EA1F72E3E45DD323E93C1363E7DA43A87
:104240003E0A863E3E2766423ED844463E12224AF9
:104250003EC7FD4D3EFED7513EAFB0553EC68759D5
:104260003E4B5D5D3E3731613E7C03653E1AD4684E
:104270003E0AA36C3E4770703EC83B743E8805788A
:104280003E86CD00FF007B3EB5937F3E0EAC813E67
:10429000538D833EAE6D853E164D873E8D2B893EF8
:1042A0000F098B3E99E58C3E2BC18E3EC19B903E03
:1042B0005475923EE94D943E7B25963E07FC973E11
:1042C0008BD1993E02A69B3E6F799D3ECD4B9F3E82
:1042D0001C1DA13E57EDA23E7FBCA43E8D8AA63E8A
:1042E0008457A83E6223AA3E23EEAB3EC2B7AD3E42
:1042F0004580AF3EA447B13EE20DB33EF9D2B43E95
:10430000E996B63EB159B83E4F1BBA3EC2DBBB3E42
:10431000079BBD3E1E59BF3E0416C13EBCD1C23EE6
:104320003F8CC43E8E45C63EA4FDC73E89B4C93EFF
:10433000336ACB3EA41ECD3EDAD1CE3ED583D03EED
:104340009434D23E18E4D33E5A92D53E603FD73ED5
:1043500021EBD83EA395DA3EE33EDC3EE1E6DD3ECE
:104360009A8DDF3E0D33E13E3AD7E23E227AE43EBB
:10437000C51BE63E1BBCE73E2F5BE93EF7F8EA3E75
:104380007695EC3E00FF00A930EE3E93CAEF3E3535
:1043900063F13E86FAF23E8F90F43E4925F63EB92F
:1043A000B8F73EDA4AF93EAFDBFA3E386BFC3E71B5
:1043B000F9FD3E5A86FF3EFC88003F234E013FA296
:1043C00012023F7BD6023FAC99033F365C043F1795
:1043D0001E053F51DF053FE39F063FCE5F073F12BB
:1043E0001F083FADDD083FA29B093FEF580A3F94ED
:1043F000150B3F93D10B3FE98C0C3F9A470D3FA221
:10440000010E3F03BB0E3FBF730F3FD32B103F4145
:10441000E3103F089A113F2A50123FA405133F7939
:10442000BA133FA86E143F3322153F18D5153F57D6
:1044300087163FF138173FE7E9173F389A183FE7EB
:1044400049193FEFF8193F55A71A3F18551B3F3739
:10445000021C3FB3AE1C3F8E5A1D3FC4051E3F5A7F
:10446000B01E3F4E5A1F3FA103203F52AC203F6376
:1044700054213FD3FB213FA4A2223FD548233F67CD
:10448000EE233F5A9300FF00243FAD37253F63DB07
:10449000253F7A7E263FF420273FD2C2273F136470
:1044A000283FB704293FBFA4293F2C442A3FFEE2FE
:1044B0002A3F33812B3FD11E2C3FD2BB2C3F3C588F
:1044C0002D3F0CF42D3F438F2E3FE1292F3FE9C3B1
:1044D0002F3F595D303F33F6303F758E313F2126F7
:1044E000323F39BD323FBB53333FA9E9333F027FEF
:1044F000343FC713353FF9A7353F993B363FA6CE2A
:10450000363F2161373F0BF3373F6484383F2E1528
:10451000393F65A5393F0F353A3F2AC43A3FB45277
:104520003B3FB3E03B3F226E3C3F06FB3C3F5D8799
:104530003D3F26133E3F679E3E3F1A293F3F44B30F
:104540003F3FE43C403FF9C5403F864E413F89D65E
:10455000413F065E423FFAE4423F676B433F4FF103
:10456000433FB076443F8CFB443FE27F453FB4037A
:10457000463F0187463FCB09473F138C473FD70D46
:10458000483F198F483F3004DD0F49046D5804003F
:0400000508000215D8
:00000001FF
